:1000000068C300009EC300009CC300009AC30000A8
:1000100098C3000096C3000094C3000092C3000080
:1000200090C300008EC300000C949A1E0C94561EC0
:100030000C94102086C3000084C3000082C300001B
:1000400080C300007EC300007CC300007AC30000B0
:1000500078C300000C94EC1F74C3000072C300004E
:1000600070C300006EC300006CC300006AC30000D0
:1000700068C3000066C3000064C3000062C30000E0
:100080000C9437205EC300005CC300005AC300001C
:1000900058C3000056C3000054C3000052C3000000
:1000A00050C300004EC300004CC30000076342363B
:1000B000B79BD8A71A39685618AEBAAB558C1D3CF9
:1000C000B7CC5763BD6DEDFD753EF6177231BF00BD
:1000D0000000803F08000000BE922449123EABAAF7
:1000E000AA2ABECDCCCC4C3E00000080BEABAAAA52
:1000F000AA3E00000000BF000000803F000000009A
:1001000000084178D3BB4387D1133D190E3CC3BDD2
:100110004282AD2B3E68EC8276BED98FE1A93E4C7F
:1001200080EFFFBE01C4FF7F3F00000000000631EA
:10013000FF0974A1010975150026FF0095207508B7
:100140008102C005010980A101850319012AB700B8
:10015000150126B700950175108100C0050C090135
:10016000A101850419012AA002150126A00295010A
:1001700075108100C005010906A101850605071952
:10018000E029E71500250195087501810205071989
:100190000029EF1500250195F07501810205081968
:1001A000012905950575019102950175039101C01D
:1001B00005010906A101050719E029E71500250138
:1001C00095087501810295017508810105071900DF
:1001D00029FF150026FF00950675088100050819FE
:1001E00001290515002501950575019102950175F7
:1001F000039101C044454255473A206469736162E6
:100200006C65642E0A0044454255473A20656E618C
:10021000626C65642E0A004F6E6573686F743A20D5
:100220006163746976653A2025640A000A00253006
:10023000325820006E6B726F5F7265706F72743A25
:100240002025303258207C20000A002530325820EA
:10025000006B6579626F6172645F7265706F727452
:100260003A2025303258207C2000290014001A0042
:100270000800150017001C0018000C0012001300E5
:100280002A002B0004001600070009000A000B00DA
:100290000D000E000F0033003400E1001D001B00B4
:1002A000060019000500110010003600370052004A
:1002B00028002752E000E200E30023522C002C002B
:1002C00024523800500051004F002B0014001A0037
:1002D000090013000A000D000F0018001C00330075
:1002E0002A002900040015001600170007000B0063
:1002F000110008000C0012003400E1001D001B007A
:100300000600190005000E00100036003700380006
:1003100028000578E000E200E30023522C002C00C6
:1003200024525000510052004F002B003400360080
:10033000370013001C0009000A00060015000F001A
:100340002A00290004001200080018000C00070011
:100350000B001700110016003800E10033001400F4
:100360000D000E001B00050010001A0019001D00F2
:1003700028000578E000E200E30023522C002C0066
:1003800024525000510052004F0035021E021F023D
:100390002002210222022302240225022602270231
:1003A0002A004C003A003B003C003D003E003F006C
:1003B0002D022E022F0230023102010040004100C6
:1003C0004200430044004500320264024A004D00EE
:1003D00001000100E400E60001000100010001004D
:1003E0002652AB00AA00A900AE0035001E001F0077
:1003F00020002100220023002400250026002700E1
:100400002A004C003A003B003C003D003E003F000B
:100410002D002E002F003000310001003500340087
:100420002302340236004500320064004B004E00C7
:1004300001000100E400E600010026520100010075
:100440000100AB00AA00A900AE001E001E001E00A5
:100450001E001E001E001E001E001E001E001E00AC
:100460001E00000014001A000800150017001C00F0
:1004700018000C00120013002F00000004001600EA
:10048000070009000A000B000D000E000F003300EA
:1004900034000052000000000600190000000000B7
:1004A000110010000000000000000100007C027C30
:1004B000207821782378247825782678277828785A
:1004C0004C000100010093748074817415701470E5
:1004D000E052E152E2520552010001009574947419
:1004E000907491740071017101000100010001001C
:1004F00001000100010001000100010001000100F4
:100500000100010001000100010000003A003B0071
:100510003C003D003E003F004000410042004300DF
:100520004C00000035020000000000000000000048
:10053000000000000000000000000000E60036009F
:1005400023023402350023020000000000004B00AB
:10055000000001000000000000000000000000009A
:10056000000046004A004E004D0073757370656EC2
:1005700064696E67206B6579626F6172640D0A0051
:100580000A002530313662003A200025303258000A
:100590000A722F63203031323334353637383941DF
:1005A00042434445460A006C65645F7461736B3A6C
:1005B00020253032580A00617564696F5F696E6981
:1005C0007420617564696F5F636F6E6669672E760C
:1005D000616C6964203D20302E205772697465205B
:1005E00064656661756C742076616C7565732074E2
:1005F0006F20454550524F4D2E0A006164645F6B79
:1006000065795F6269743A2063616E277420616462
:10061000643A20253032580A0064656C5F6B657956
:100620005F6269743A2063616E27742064656C3A76
:1006300020253032580A005B435D005B445D005B5F
:10064000535D005B575D005B525D0009025400037F
:100650000100A0FA090400000103010100092111B1
:10066000010001224400070581030800010904017B
:10067000000103000000092111010001226D0007A3
:1006800005820320000109040200010300000009A3
:10069000211101000122150007058303200001122A
:1006A00001000200000008A80301AE0400010200DE
:1006B000010E0350006C0061006E0063006B0000CF
:1006C000000A034F004C004B0042000000040309E5
:1006D000040011241FBECFEFDAE0DEBFCDBF04B6A9
:1006E00003FE18C08091C9059091CA05A091CB0561
:1006F000B091CC058730904BA740B04B59F4109285
:10070000C9051092CA051092CB051092CC05E0E005
:10071000F8E3099525E0A2E5B4E001C01D92A93CEB
:10072000B207E1F714E0A0E0B1E0EAE0F4E502C0CE
:1007300005900D92A235B107D9F70E94E0210C94E3
:10074000BB295ECCFF93EF93E0915204F0915304E8
:10075000309709F00995EF91FF910895FC0185917B
:10076000803011F0EFDFFBCF0895FF27E0E230E2A9
:1007700047FF0CC0419597FF09C0EDE26095709569
:1007800080959095611D711D811D911D27FF02C0EF
:10079000219530E350E2AA27660F771F881F991F23
:1007A000AA1FA41710F0A41B63955A95A9F7AA30A5
:1007B00008F0A95FA05DAF93F39561157105810500
:1007C000910541F7ED3211F4EF93F395F21718F418
:1007D0003F93F395FBCF8F91B5DFFA95E1F708953D
:1007E000E991F9918591803021F0853219F0AADFE5
:1007F000F9CF089520E0E89455915532C1F3503374
:1008000011F4689455915A3348F4505390F3220FE1
:10081000022E220F220F200D250FF4CF0EF421956A
:1008200089919991533619F3533729F1533559F179
:10083000BC0188279927E8945C3621F48991999125
:1008400068945591543639F446EF7EF077FF0DC029
:100850008FEF9FEF0AC055374AE039F0583540E135
:1008600021F0523642E009F00895FF93EF937DDFC7
:10087000EF91FF91B7CFFF93EF93FC01819180300F
:10088000B9F360DFFBCFFF93EF9368DFF1CFDF9326
:10089000CF93CDB7DEB72596A3DFCF91DF91089533
:1008A000482F20916F059091360557E0291302C01B
:1008B00080E0089530E0529FF001539FF00D112425
:1008C000E95CFA4F8181681306C08081481303C038
:1008D00085818111EECF2F5F3F4F2770E7CFE8ED85
:1008E000F0E080818E7F80831092E2001092DA0027
:1008F0001092E100A0EEB0E08C9181608C93808139
:100900008F77808319BCA7EDB0E08C918E7F8C939C
:1009100080818F7E80831092210508952091E400CC
:100920003091E50095E6A9012091EC00822F8170BD
:1009300020FF06C08091E80080FF06C080E0089597
:100940002091E80022FD1AC080912C05882389F0AF
:10095000853089F08091EB0085FD0FC02091E40087
:100960003091E50042175307F9F29150E1F684E027
:10097000089582E0089583E0089581E008958091CC
:100980002E0587FF13C08091E80082FF06C080918A
:10099000E8008B778093E80004C080912C058111DA
:1009A000F2CF089580912C058823D9F38091E80037
:1009B00080FFF8CF8091E8008E77ECCF982F90934E
:1009C000E900242F762F50E0891731F07091EC0068
:1009D0002091ED005091F00021FD07C09F5F9730FE
:1009E00071F78093E90081E008953091EB003E7F3C
:1009F0003093EB003091ED003D7F3093ED0030916E
:100A0000EB0031603093EB007093EC002093ED002D
:100A10005093F0002091EE0027FDE0CF80E0089594
:100A2000B0E0A0E0E6E1F5E00C94CA24C8EDD0E027
:100A300088818F7E8883E7EDF0E08081816080830C
:100A400084E082BF81E08093210588818E7F888346
:100A500002EE10E0F80110821092DA0081EEC82E4A
:100A6000D12CF601108288818F77888388818068F5
:100A7000888388818F7D888319BC10922C05109201
:100A80002D0510922B0510922A0590EEE92EF12CDF
:100A9000F70180818B7F808388818160888342E039
:100AA00060E080E08BDFF60180818E7F8083F8013B
:100AB000808181608083808188608083F70180816C
:100AC0008E7F8083888180618883CDB7DEB7E8E040
:100AD0000C94E624FC01809134059091350586172D
:100AE0009707A0F06115710529F49091E8009E77B1
:100AF0009093E80090E06115710551F4911108C0E0
:100B00008091E80082FF34C080E00895BC01F2CFFC
:100B100080912C058823C1F18530C1F18091E800D6
:100B200083FD30C08091E80082FDEACF8091E8002B
:100B300080FFE1CF8091F3002091F200382F611502
:100B4000710519F02830310558F091E02830310551
:100B500009F090E02091E8002E772093E800CBCFB9
:100B600081918093F100615071092F5F3F4FE7CF72
:100B700080912C05882341F0853041F08091E80078
:100B800083FFBECF81E0089582E0089583E0089559
:100B900008952FB7F89480911A0590911B05A091A4
:100BA0001C05B0911D052FBF089580918303089502
:100BB000A3E0B0E0EEEDF5E00C94D0242091140514
:100BC0003091150528173907B1F0909315058093DA
:100BD0001405E0911205F0911305309761F000843F
:100BE000F185E02D309739F024E029839B838A83B7
:100BF000CE01019609952396E2E00C94EC24A3E043
:100C0000B0E0E5E0F6E00C94D0242091100530919E
:100C1000110528173907B1F090931105809310053D
:100C2000E0911205F0911305309761F00084F18591
:100C3000E02D309739F023E029839B838A83CE010E
:100C4000019609952396E2E00C94EC24E0911205BC
:100C5000F0911305309739F00190F081E02D309735
:100C600011F00995089580E00895E1E7F0E08081B2
:100C70008D7F8083E0E9F0E080818F738083089529
:100C8000CF92DF92EF92FF926B017C0120E030E087
:100C9000A9010E94562681110AC0809190008F738D
:100CA00080939000FF90EF90DF90CF900895809117
:100CB0009000806880939000C0920605D09207054E
:100CC000E0920805F092090520E030E040E051E4B0
:100CD000C701B6010E9401289B01AC0160E074E2EB
:100CE00084E79BE40E945A266B017C010E94C72680
:100CF00070939700609396006091860370E090E097
:100D000080E00E94F526A70196010E94012820E0BC
:100D100030E048EC52E40E945A260E94C7267093A5
:100D2000990060939800BECF8091C102811121C0CB
:100D30001092C8059ADF10927F05109280051092DC
:100D4000740510927305E8E8F5E080E090E0A0E813
:100D5000BFEB1182108282839383A483B5831782B1
:100D60001682389625E0E83CF20799F781E08093F7
:100D7000C102089580910E058111D6CF0895F8948F
:100D8000E82FE295EF70F0E031A1282F2F7081E07D
:100D900090E001C0880F2A95EAF7982F9095932349
:100DA00091A392A1892B82A378940895909117051D
:100DB00092FF10C041E0282F2471243009F040E058
:100DC00031E0282F2871283009F030E0431711F066
:100DD0002CE0822793FF10C041E0282F247124319A
:100DE00009F040E031E0282F2871283109F030E087
:100DF000431711F02CE082273091180530FF10C006
:100E000051E0282F2171213009F050E041E0282FD6
:100E10002871283009F040E0541711F029E08227AA
:100E200031FF10C041E0282F2171213109F040E04D
:100E300031E0282F2871283109F030E0431711F0F4
:100E400029E0822794FD877E089582389105B9F1C3
:100E5000B0F48133910509F47DC048F489329105DD
:100E600009F46DC08A32910509F47BC00895853379
:100E7000910509F45FC08933910509F10895833E16
:100E80009105D9F138F4803E910529F1823E910512
:100E900079F10895863E9105D9F1873E910509F4CF
:100EA0003EC0843E910541F52091180521FF24C0E4
:100EB0008091170584FD19C087EE90E00895209178
:100EC0001705237009F05AC02091180523FF14C09C
:100ED00089E290E008952091170520FD38C03091F7
:100EE000180530FF09C024FF43C090E080E008955A
:100EF0002091170522FDF7CF08952091170522FDB7
:100F00003AC03091180530FD39C024FFF5CFEDCF40
:100F10002091170523FFF0CF24FDE7CFCDCF2091FF
:100F2000170523FD2EC03091180531FFEECF84EE5A
:100F300090E008952091170525FFDECFC9CF2091BD
:100F4000170525FD21C02091180523FFD5CF89E382
:100F500090E0D2CF2091170526FFCECF8AE290E015
:100F600008952091170526FFC7CF81E390E00895EB
:100F700083EE90E0089582EE90E0089580EE90E098
:100F8000089586EE90E0089585E390E00895972F08
:100F90007430B8F46C30A8F48830B0F470E02CE011
:100FA000929F600D711D1124FB0190E3899FE00D5C
:100FB000F11D1124EE0FFF1FE659FD4F859194910D
:100FC000089580E090E0089581E0FCCF1F93CF93D7
:100FD000DF933BDFEC01C11580E5D807F0F5C115C3
:100FE00080E4D80708F09AC0C03ED10520F5CD3C7A
:100FF000D10508F082C0C83AD10578F4C53AD105C8
:1010000008F073C0C130D10519F1209709F1C4303F
:10101000D105F0F4D0E0C0E01BC0C33CD105D0F74F
:10102000C85AD0E0CC0FDD1FC355DC4F0990D881E2
:10103000C02DD4640DC0C11580E2D80708F0CDC022
:10104000C11581E0D80708F05AC0C83ED10510F795
:10105000CE01DF91CF911F910895C03682E5D80768
:1010600018F5C03482E5D80708F068C0C03282E5C0
:10107000D80708F05CC0C11582E5D80708F493C012
:101080002C2F2695269580E2289F900111248C2FE5
:101090008370C1E0D0E002C0CC0FDD1F8A95E2F77B
:1010A000C22BD32BDD68D4CFC03A82E5D80760F4D9
:1010B000C03882E5D80708F456C0CF71D0E0DC2FE5
:1010C000CC27C46FD06AC4CFC03C82E5D80708F4EF
:1010D0005FC0C03E82E5D80708F09CCFDC2FCC274C
:1010E000CC27DF71C06FD06AB3CFC55AD0E0C655E8
:1010F000DC4FC881D0E0D064ABCFD065A9CF8D2FB5
:1011000055DE182FCE019927A0DEC12FD0E0DC2FAD
:10111000CC27CC27DF71C82BD92B9ACFCE019927AA
:1011200094DECC27DF70C82BD92BD06A91CFCF713A
:10113000D0E0DC2FCC27C16FD06A8ACF2C2F269528
:101140002695277080E2289F900111248C2F8370B0
:10115000C1E0D0E002C0CC0FDD1F8A95E2F7C22BC0
:10116000D32BDC6875CF2C2F26952695277080E22F
:10117000289F900111248C2F8370C1E0D0E002C021
:10118000CC0FDD1F8A95E2F7C22BD32BDA6860CF34
:101190008C2F8F710BDEC82FD0E0DC2FCC27CC2713
:1011A000DF71D06255CF8C2F8F7100DE55E0D69560
:1011B000C7955A95E1F7CF70D0E0DC2FCC27282FC8
:1011C00030E084FF06C044E0220F331F4A95E1F768
:1011D0003327C22BD32BD0693BCF8D2F8F71E6DD08
:1011E000182FCE01992731DEC12FD0E0DC2FCC277C
:1011F000CC27DF71C82BD92BD4CF80959091CA040E
:1012000098239093CA0408958091CA049091A104F0
:10121000892B9091A004992391F0892B90918403BC
:10122000913071F49091170597FF0AC09EE12EE569
:1012300034E040E0915040F441111092A004089530
:1012400096E026E534E0F5CFF90151919F01552351
:1012500089F34F5FEFCF80916F059091360598131A
:1012600001C008958F5F8770FACFB0E0A0E0EBE394
:10127000F9E00C94C9247C010091DA041091DB049C
:101280008091D8049091D904082B192BCFE0D0E09D
:10129000CC24C394D12CBC2EC6010C2E02C0880FC6
:1012A000991F0A94E2F780239123892B49F421970F
:1012B00090F7B12C8B2DCDB7DEB7E9E00C94E52487
:1012C000B7018C2F64DE82DE019789F3F3CFCF93D1
:1012D000DF93EC01CADFBE015ADE78DEDF91CF91E9
:1012E0000895943078F58C3068F5E82FF0E08CE0C4
:1012F000989FE00DF11D11249E2F977083E0F695C5
:10130000E7958A95E1F7EE0FFF1FEE0FFF1FE058FC
:10131000FB4F50E040E080E0219130E0092E02C018
:10132000369527950A94E2F721703327042E01C0E1
:10133000220F0A94EAF7822B4F5F5F4F443051052A
:1013400059F7089580E00895943098F58C3088F529
:10135000E82FF0E08CE0989FE00DF11D11248E2F16
:10136000877041E001C0440F8A95EAF783E0F69563
:10137000E7958A95E1F7EE0FFF1FEE0FFF1FE0588C
:10138000FB4F30E020E070E05191DF011197CB017D
:10139000022E02C0969587950A94E2F78170819596
:1013A0008527842385278C932F5F3F4F2430310579
:1013B00059F708959093DB048093DA04089521E0AF
:1013C00030E002C0220F331F8A95E2F72095309556
:1013D0008091DA049091DB0482239323EBCF9091E8
:1013E0009F048095892380939F04282F277061F4A0
:1013F000891751F09091180592FF06C08695869541
:101400008695DDDF10929F04089521E030E002C050
:10141000220F331F8A95E2F78091DA049091DB0462
:10142000822B932BC7CF9093D9048093D80408952F
:10143000FC0124812223B9F08081918148DF9295BB
:101440009F70963091F058F4925F9F70923058F4EC
:10145000803F19F030F4883E30F481E008959A5FBF
:10146000F4CF843FD1F380E00895883EB0F3813F0C
:10147000D1F7F3CF829590E09C01220F331F220F0A
:10148000331F2C7C95958795959587958373282B8D
:1014900030E0C901880F991F8A7A359527952575FF
:1014A000822B0895A6E0B0E0E8E5FAE00C94CF24A2
:1014B00026E0FC01DE01119601900D922A95E1F7DC
:1014C000FC01258189819A81222381F0662371F0B4
:1014D000CCDE182F682F89819A8136DF69817A8165
:1014E000812F55DD2696E3E00C94EB24FADE182FCD
:1014F000F5CF8554990BBC01990F880B990B0E946D
:10150000F52620E030E040E451E40E945A269B0199
:10151000AC0160E070E080E090E40E94642820E08C
:1015200030E04CED53E40C940128CF92DF92EF921F
:10153000FF920F931F93E091C805EE2309F414C2A4
:10154000E15088E0E802F0011124E857FA4FC28028
:10155000D380E480F58020E030E0A901C701B60126
:101560000E94562618160CF0FFC1009186051091B6
:1015700087050FDB801B910B8C0164E670E00E94F5
:101580009324E0918505E93038F4F0E0E354F64D1A
:101590000C94BA241092840580918305882369F104
:1015A000F8DABC0190E080E00E94F32620E030E011
:1015B00048E451E40E945A2620E030E040EA51E439
:1015C0000E9437270E94C226660F771F660F771F7B
:1015D0006E5F7B4FFB01608171818281938120E08E
:1015E00030E040E05FE30E9464289B01AC01C7014A
:1015F000B6010E9401286B017C01C701B6011F9151
:101600000F91FF90EF90DF90CF9008951092840596
:1016100081E080938305C0CF109284056431710509
:1016200038F46A30710540F089E180938603B4CFC5
:1016300088E1693C7105C8F38CE0F7CF109284050E
:1016400020E030E040EA52E4C701B6010E9456268D
:1016500087FDA2CF20E030E040E253E4C701B601AD
:101660000E94562687FF28C00E943E2568E270E04F
:101670000E94A724BC01645C7F4F072E000C880BDE
:10168000990B0E94F5266B017C010B30110508F4C3
:1016900098C00531110508F0B1C02EEC2003C0013F
:1016A000219F900D1124865E9B4F6AE070E00E949E
:1016B00093246093860370CF20E030E040EA53E447
:1016C000C701B6010E94562687FF24C00E943E250E
:1016D00068EE73E00E94A724BC0168517C4F072E7E
:1016E000000C880B990B0E94F5266B017C010630DB
:1016F000110508F466C00531110508F07FC02EEC15
:101700002003C001219F900D1124865E9B4F6FE046
:1017100070E0CDCF20E030E040E254E4C701B601F4
:101720000E94562687FF23C00E943E2560ED77E089
:101730000E94A724BC016854744F072E000C880B2C
:10174000990B0E94F5266B017C0100311105C8F14F
:101750000531110508F052C02EEC2003C001219F75
:10176000900D1124865E9B4F65E070E0A0CF20E0D5
:1017700030E040EA54E4C701B6010E94562687FFD4
:101780000BCF0E943E2560ED77E00E94A724BC01AC
:101790006854744F072E000C880B990B0E94F52695
:1017A0006B017C010432110560F00333110530F543
:1017B0002EEC2003C001219F900D11248A50964FDA
:1017C000A6CF82E332CF81E0809384056431710536
:1017D00090F420E030E040E85EE36A30710520F0EC
:1017E00020E030E040E05FE3C701B6010E9401283D
:1017F0006B017C0121CF693C710518F010928603C2
:10180000CBCE90E080E00E94F32620E030E040EA7A
:1018100051E40E94F12520E030E044E353E40E94CB
:101820005A269B01AC010E94012820E030E048E4E8
:1018300051E40E9401280E94C7268CE0861BF5CE49
:1018400081E0809384052AE0269FC001279F900DA8
:10185000112468EB7BE00E9493248C5D954097FFF8
:1018600003C0919581959109BC017727072E000C43
:10187000880B990B0E94F5262EE333EC4EE259E3D8
:101880000E94012820E030E040EC5EE30E94F22557
:101890000E94C7260ECF81E080938405C801837023
:1018A0009927892B19F1C8018170992724E6289F6F
:1018B000B001299F700D112490E080E00E94F32672
:1018C00020E030E040E05EE30E94012820E030E0CC
:1018D00040E45FE30E94F2250E94C72660938603DE
:1018E00007701127012B09F057CE88CF82E3809330
:1018F0008603F6CF81E08093840582E3809386039C
:101900000C3F1A4308F448CE90E080E00E94F32692
:1019100020E030E047E153E40E94F12520E030E090
:101920004AE754E40E945A2620E030E048E452E4BA
:101930000E94012820E030E040EA51E40E9437276D
:101940000E94C226660F771F660F771F6E5F7B4F60
:10195000FB012081318142815381C701B6010E9480
:1019600001286B017C0118CEC12CD12C760145CE0B
:101970009FB7F89410921F059FBF90912C0594304B
:1019800009F048C02091E9002F703091EC00932FAE
:10199000917030FD90E8922B23E02093E900209194
:1019A000EB0020FF34C02091EE0027FF30C02091D3
:1019B0001E05222321F02091E80025FF28C0109267
:1019C0001E0526E03091E80035FF14C08093F10039
:1019D0008091E80085FD27C08091E80080FFFCCF62
:1019E0008091E8008E778093E8009F709093E900E3
:1019F00080E0089530912C05343049F43091EB00AB
:101A000035FD05C0215041F481E080931E059F7093
:101A10009093E9008FEF0895EFE9FFE03197F1F738
:101A200000C00000CFCF8FB7F89421E020931F05AE
:101A30008FBFDBCF0F931F93CF93DF938B01EA010F
:101A400090912C05943061F58093E9008FEF90918F
:101A5000E800815095FD06C095ED9A95F1F70000DC
:101A60008111F5CF8091E80085FF1AC00E948E0495
:101A7000811111C08091E80085FD06C08091E800C9
:101A80008E778093E800F2CFF80181918F018093E7
:101A9000F100219779F78091E8008E778093E80034
:101AA000DF91CF911F910F91089543E050E0BC0169
:101AB00082E0C0CF40E250E0BC0182E0BBCFCF93D8
:101AC000DF93EC0148E050E0BC0181E0B3DF88E047
:101AD000FE01A2E2B5E001900D928A95E1F7DF9157
:101AE000CF91089581E08093E00080E28093D80058
:101AF0001092C9008FE19EE40197F1F700C0000049
:101B000087E090EBDC018093C9059093CA05A09310
:101B1000CB05B093CC0588E19CE00FB6F894A8956E
:101B2000809360000FBE90936000FFCF909184037C
:101B3000913059F59091170597FF27C0E82FE6954A
:101B4000E695E695EE3180F4F0E0E45AFB4F282F5D
:101B5000277081E090E001C0880F2A95EAF7809510
:101B600092818923828308959091160590FF19C070
:101B70001F928F9389E196E09F938F930E94470471
:101B80000F900F900F900F900895E6E5F4E091917B
:101B9000891303C0DF0111971C9294E0EC35F9071B
:101BA000B1F7089590918403913049F5909117050C
:101BB00097FF25C0E82FE695E695E695EE3170F49F
:101BC000F0E0E45AFB4F877021E030E001C0220FC3
:101BD0008A95EAF78281822B828308959091160577
:101BE00090FF1EC01F928F938BEF95E09F938F9372
:101BF0000E9447040F900F900F900F900895A6E554
:101C0000B4E0EFEF90E02D91821751F0EF3F19F41F
:101C1000211101C0E92F9F5F9630A9F7EF3F09F42A
:101C200008950E2E000CFF0BEC5AFB4FD5CF809180
:101C3000810581113DC087E090E00E945925809385
:101C4000820582FD15C08091160580FF08C087EBD4
:101C500095E09F938F930E9447040F900F9060919F
:101C6000820567606093820587E090E00E946625A8
:101C7000E8E8F5E080E090E0A0E8BFEB1182108298
:101C800082839383A483B58317821682389625E0D6
:101C9000E83CF20799F70E9435063E9A82E080936D
:101CA00090008AE18093910081E0809381053CC897
:101CB0000895B0E0A0E0EFE5FEE00C94C5244B01F0
:101CC0005C017A018091820580FF83C0809181054B
:101CD000811101C0ACDF20E030E0A901C501B401F1
:101CE0000E94562687FF04C0B7FAB094B7F8B094A4
:101CF0007090C805872D8150990B6C01EC01CF3F86
:101D0000DC0709F050C081E0870D893008F47FC0FE
:101D100088E08093C80588E895E028E0FC013896C3
:101D2000DC0101900D922A95E1F7089625E0803CB0
:101D3000920799F781E08093050580938005C09113
:101D4000C805C150DD0B0E94C905FE0123E0EE0F5E
:101D5000FF1F2A95E1F7E857FA4F9183808382822B
:101D60009382A482B582F782E6820E94C90590938D
:101D70008705809386058091C102882351F1809167
:101D800071008260809371008091900080688093E0
:101D9000900080918005882319F0C7DB0E944006DF
:101DA0001092C10216C08E0133E0000F111F3A9548
:101DB000E1F708571A4FA5019401F8016281738178
:101DC000848195810E94562681111FC0CC15DD05A6
:101DD0002CF0CDB7DEB7EDE00C94E124219688E03D
:101DE000F8013896D80101900D928A95E1F70E948A
:101DF000C905F8019187808782869386A486B58677
:101E0000F786E686085F1F4FE1CF219778CF809352
:101E1000C80590CFCF92DF92EF92FF92CF93DF93DE
:101E2000EC017B018091820580FD09C00E9494062F
:101E3000DF91CF91FF90EF90DF90CF900895809148
:101E40008105811101C0F3DE8091800581110E941E
:101E5000940681E080937F0510927E05D0937D05E6
:101E6000C0937C05F0927B05E0927A05109279058B
:101E700010927805109277056C817D818E819F810B
:101E80000E94C7269B01A3E5B7E00E94E22520EF50
:101E9000C22ED12CE12CF12CA70196010E94C02565
:101EA000688179818A819B81A90103DF0E94C9052C
:101EB0009093760580937505E0917C05F0917D0502
:101EC000809177059091780533E0880F991F3A95B6
:101ED000E1F7E80FF91F64817581868197810E947F
:101EE000C7269B01A3E5B7E00E94E225A701960162
:101EF0000E94C025309374052093730599CF81E02B
:101F000080930F0568E070E082E493E083CF0E9445
:101F1000BA0610920E0568E070E082E093E07ACF96
:101F200081E080930E0568E070E082EC92E072CF71
:101F300062E070E081EB92E06DDF2FEF81EE94E0E4
:101F4000215080409040E1F700C000000E949406BC
:101F5000609182056E7F6093820587E090E00C942B
:101F600066256091820561606093820587E090E05C
:101F70000E94662562E070E081EA92E04BCFB9DA18
:101F80004FEF5FEF96CEB0E0A0E0E9ECFFE00C94FD
:101F9000CA246B017C0120E030E0A9010E94562692
:101FA00087FF04C0F7FAF094F7F8F0948091800569
:101FB000882309F456C080918105811101C037DE64
:101FC00008E815E0C7E0D0E0A7019601F80162AD8E
:101FD00073AD84AD95AD0E94562681113BC0CE01F4
:101FE00023E0880F991F2A95E1F788579A4FF5E06B
:101FF000803C9F0729F51092C1051092C00580E032
:1020000090E0A0E8BFEB8093C2059093C305A09336
:10201000C405B093C5051092C7051092C605C1E06E
:10202000C09305058091C80581508093C805811132
:1020300018C00E943506C093C1021092800511C0DD
:1020400028E0FC013896DC0101900D922A95E1F719
:102050000896CDCF219708501109CF3FDC0709F032
:10206000B3CFCDB7DEB7E8E00C94E624CF93C82F0A
:102070008091180582FB992790F99C17F1F0C0FB1D
:1020800082F980931805609117057091180584E016
:1020900090E00E94802582E0A2D98091160580FF01
:1020A0000CC01F92CF9387E192E09F938F930E9481
:1020B00047040F900F900F900F90CF910895EF92DB
:1020C000FF920F931F93CF93DF938091840381300E
:1020D00009F06EC08091170587FF6AC095D880937C
:1020E0005D0440E250E062EA74E08CE594E00E9416
:1020F0004C25892B09F457C080E2ECE5F4E0A2EA14
:10210000B4E001900D928A95E1F7E0911205F0910B
:102110001305309709F447C00480F581E02D30970E
:1021200009F441C086E080935C048CE594E0099555
:102130008091160582FF37C080FF0EC080915D043C
:102140001F928F9384E392E09F938F930E944704A2
:102150000F900F900F900F90CCE5D4E09AE7E92E06
:1021600094E0F92E0EE212E08091160580FF0BC07C
:102170008A811F928F931F930F930E9447040F90A1
:102180000F900F900F902196EC16FD0669F7809145
:10219000160580FF08C08CE292E09F938F930E9407
:1021A00047040F900F90CDB7DEB7E6E00C94E8241B
:1021B0002BD88093540448E050E062EC74E084E54E
:1021C00094E00E944C25892B71F388E0E4E5F4E06B
:1021D000A2ECB4E001900D928A95E1F7E09112052E
:1021E000F09113053097F9F20280F381E02D3097DA
:1021F000D1F284E594E009958091160582FFD3CF52
:1022000080FF0EC0809154041F928F9381E592E06D
:102210009F938F930E9447040F900F900F900F9001
:10222000C4E5D4E08AE5E82E84E0F82E0BE412E061
:102230008091160580FF0BC08A811F928F931F9398
:102240000F930E9447040F900F900F900F902196CC
:10225000EC16FD0669F78091160580FFA4CF89E48E
:1022600092E09BCF1092CA04809184038130B1F434
:102270008091170587FF12C0EEE5F4E08EE1DF01E3
:102280001D928A95E9F790E080E00E94FF0590E0BA
:1022900080E00E94D8051092A10411CFE6E5F4E099
:1022A00086E0EDCFAAE2B0E0E8E5F1E10C94CF24BE
:1022B0008EE295E02091F100DC012D93CD01B5E097
:1022C00086339B07B9F780912F05833009F470C0DE
:1022D000B8F4813009F447C0823009F4B4C0809169
:1022E000E80083FF8FC280912E0590912F059A30D0
:1022F00008F088C2E92FF0E0EA53F64D0C94BA24B6
:102300008A3009F48FC08B3009F46FC0893039F7F7
:1023100080912E05813219F7809132059091330515
:102320000297E8F68091E800877F8093E80080912B
:10233000E80082FF38C09091F3008091F20002978C
:1023400031F48091F100813011F0863021F48091D8
:10235000F100809383038091E8008B778093E800FD
:102360000E94BF04BCCF80912E05813A09F0B7CFFF
:102370008091E800877F8093E800809132059091FA
:102380003305892B61F468E082E295E070E00E94F9
:102390006A058091E8008B778093E800A0CF60E029
:1023A00090E080E0F3CF80912C058111C0CF97CFD2
:1023B00080912E05813A09F092CF8091320590915B
:1023C0003305892B09F08BCF8091E800877F8093BC
:1023D000E8008091E80080FFFCCF80918403809327
:1023E000F1008091E8008E77B9CF80912E0581327F
:1023F00009F075CF8091320590913305892B09F052
:102400006ECF8091E800877F8093E8000E94BF0430
:1024100081E090913005911101C080E080938403A8
:1024200021DF5DCF80912E05813209F058CF809158
:10243000E800877F8093E8000E94BF048091310507
:10244000809382034CCF80912E05813A09F047CFCB
:102450008091E800877F8093E8008091E80080FF0A
:10246000FCCF80918203BBCF803899F0823809F08D
:10247000C9C1809132058F70873008F0C3C1809345
:10248000E9008091EB0085FB882780F91092E90034
:1024900006C080912A0590912B0591118260909140
:1024A000E800977F9093E8008093F1001092F1008C
:1024B0008091E8008E77A2C1882309F490C1823010
:1024C00009F0A0C180913005811193C1809132053E
:1024D0008F702FEF280F263008F094C18093E90009
:1024E0002091EB0020FF85C1933031F48091EB0007
:1024F00080628093EB007DC19091EB00906190939E
:10250000EB0021E030E001C0220F8A95EAF720932A
:10251000EA001092EA008091EB008860EACF811116
:1025200071C1109130051F778091E3008078812B75
:102530008093E3008091E800877F8093E8000E9409
:10254000BF048091E80080FFFCCF8091E3008068A9
:102550008093E30082E0111183E080932C0552C147
:102560008058823008F04EC12091300530913105FD
:102570002C3DE3E03E07A1F583E08A838AE289836C
:102580004FB7F894DE01139620E03EE051E2E32FCE
:10259000F0E050935700E49120FF03C0E295EF7004
:1025A0003F5FEF708E2F90E0EA30C0F0C7968D93BA
:1025B0009D932F5F243159F74FBF8091E800877FAB
:1025C0008093E8006AE270E0CE0101960E946A05FD
:1025D0008091E8008B778093E80014C1C096E7CF24
:1025E0008091320590913305432F55274330510593
:1025F00009F44AC078F54130510509F47AC084E500
:1026000090E0EBE4F6E04230510509F0FBC0209188
:10261000E800277F2093E8002091340530913505AC
:102620008217930708F49C0140E02115310509F059
:1026300065C0411163C08091E80082FDC9CF8091DF
:102640002C05882329F2853019F28091E80083FF58
:10265000F2CFBECF4132510509F43CC042325105A0
:1026600009F0D0C08330910508F0CCC0FC01EE0F1A
:10267000FF1FEA50FC4F0190F081E02D8D509C4FE0
:10268000DC018C9190E01AC0332721303105D1F064
:102690002115310561F02230310509F0B3C0E1EBBD
:1026A000F6E0E4918E2F90E0E1EBF6E007C0EDEC70
:1026B000F6E0E4918E2F90E0EDECF6E0009709F45F
:1026C000A1C0A5CFE1ECF6E0E4918E2F90E0E1EC23
:1026D000F6E0F4CF8330910508F094C0880F991F7D
:1026E000FC01E450FC4F0190F081E02D89E090E086
:1026F0008ECF82E190E0EFE9F6E089CF80912C0562
:10270000882309F465CF853009F462CF8091E80011
:1027100083FD5ECF8091E80082FD8DCF8091E8003F
:1027200080FF83CF9091F3008091F2002115310555
:1027300019F08830910550F041E0089709F040E029
:102740008091E8008E778093E8006FCF44914093AA
:10275000F1003196215031090196E8CF803809F017
:1027600051C08091E800877F8093E80080912D051B
:102770008093F1009DCE811145C01091300512303B
:1027800008F040C08091E800877F8093E8001093B4
:102790002D050E94BF04112311F084E005C0809133
:1027A000E30087FDFACF81E080932C0542E061ECE5
:1027B00081E00E94DE0442E261EC82E00E94DE04DD
:1027C00042E261EC83E00E94DE0480912C058430BB
:1027D00021F081E08093850315C082E0FBCF8091DA
:1027E0003005813079F481E0933009F080E0809306
:1027F0002B051092E9008091E800877F8093E80024
:102800000E94BF048091E80083FF0AC08091E80025
:10281000877F8093E8008091EB0080628093EB00DB
:10282000AA96E3E00C94EB24CF93DF931BDD0E9488
:10283000BA060E94C905EC0163E070E084E091E013
:10284000E9DA0E94C9058C1B9D0B8A3F910528F08F
:102850000E949406DF91CF9108958FE99FE0019740
:10286000F1F700C00000EDCF80E0DEDF88E19CE002
:102870000FB6F894A895809360000FBE9093600007
:10288000FFCF882319F00E94FD0819CC08958823F2
:1028900031F09091CA04982B9093CA0410CC0895FB
:1028A000882309F443C0823851F40E94260681FF30
:1028B0003DC089E377D903DC89E338D900CC83387C
:1028C00049F40E94260680FF31C083E56BD9F7DB0F
:1028D00083E5F3CF843849F40E94260682FF26C0A0
:1028E00087E460D9ECDB87E4E8CF9CEF980F913A5E
:1028F00020F390E2980F983050F4877091E001C077
:10290000990F8A95EAF7892F0E94FD08D7CF9BE59A
:10291000980F933020F490E080E00C94FF05885AE3
:102920008B3120F490E080E00C94D8050895CF938B
:10293000C82F8823A9F08238A9F40E94260681FDB9
:102940000FC089E32FD9BBDB2FEF87EE93E0215037
:1029500080409040E1F700C0000089E3E7D8AFDB9A
:10296000CF910895833891F40E94260680FDF8CF18
:1029700083E518D9A4DB2FEF81EE94E0215080404D
:102980009040E1F700C0000083E5E8CF843891F47F
:102990000E94260682FDE4CF87E404D990DB2FEF66
:1029A00081EE94E0215080409040E1F700C00000AB
:1029B00087E4D4CF8CEF8C0F813A70F5809184033B
:1029C0008130F1F48091170587FF1AC0EC2FE6954E
:1029D000E695E695F0E0E45AFB4F828190E04C2FBB
:1029E000477021E030E002C0220F331F4A95E2F722
:1029F00082239323892B69F08C2F98D860DB09C040
:102A0000E6E5F4E08191C817B9F324E0EC35F2076C
:102A1000C9F78C2FC7D8A3CF80E28C0F883068F419
:102A2000C77021E030E001C0220FCA95EAF780911B
:102A3000CA04822B8093CA0492CFEBE5EC0FE330FB
:102A400040F4F0E0E655FC4F808190E00E94FF05E5
:102A500087CFC85ACB3108F083CFEC2FF0E0EE0FD0
:102A6000FF1FE355FC4F808191810E94D80578CFEC
:102A7000EF92FF920F931F93CF93DF93C62FD42F24
:102A8000022FFC0185818823A1F0609372050E94CA
:102A9000C9059093710580937005C77081E001C0EE
:102AA000880FCA95EAF7F3DECDB7DEB7E6E00C94FF
:102AB000E82480917205681332C0E0907005F090B0
:102AC00071050E94C9058E199F09883C910538F54A
:102AD00010E21D0FCD17A9F080E28C0F883038F47A
:102AE000C77081E001C0880FCA95EAF7CADE1830C6
:102AF00040F481E09D2F977001C0880F9A95EAF706
:102B0000C6DE802F14DF802FCBDE183068F6D7703A
:102B100081E001C0880FDA95EAF7B3DEC5CFC77050
:102B200081E001C0880FCA95EAF7F7CFA3E2B0E0D1
:102B3000ECE9F5E10C94C6247C01DC0114968C913F
:102B40008823F1F061E0C7010E94520A8C018038AD
:102B5000B4E79B07C9F4F7018581882309F4C1C054
:102B600000DA80919F04877059F0F70185818823EE
:102B700039F08091180582FF03C082E00E94EF09BE
:102B8000A396ECE00C94E2248138F4E79F0741F42B
:102B9000D70115968C91882309F4A3C0C9D9E1CF38
:102BA0008238B4E79B0751F4F7018581882309F443
:102BB00098C08091820580FDF1CFD2CF8439F4E7AF
:102BC0009F07B1F4D70115968C91882309F489C029
:102BD0008091850590E0019669E070E00E94A7244D
:102BE0008093850564E070E08CE191E013D9B9CF62
:102BF0008539B4E79B0751F4F7018581882309F4EF
:102C000070C08091850590E00896E6CF8039F4E7A2
:102C10009F0741F4D70115968C91882309F461C070
:102C20007FD99FCF8139B4E79B0739F4F7018581BC
:102C3000882309F456C06BD994CF8239F4E79F07F3
:102C400059F4D70115968C91882309F44AC08091D4
:102C50000E058111F0CFE4CF8115B1E79B0731F468
:102C6000F70185818823E9F14AD97BCF8130F1E7EB
:102C70009F0761F4D70115968C91882391F11092EA
:102C80000F0568E070E08CE391E0B0CF8230B1E7EF
:102C90009B0749F4F7018581882319F180910F057D
:102CA0008111EDCFE1CF83399447D9F4D70115963F
:102CB0008C918823B1F00E94BA0620911C0230E06A
:102CC0002F5F3F4F2370332720931C0248E2429F1F
:102CD000C001439F900D112465E070E084589E4F21
:102CE00085CF20910E0521110FC080910F05811114
:102CF0000BC0F801E851FC47E730F10508F0E8C0E7
:102D0000E053F64D0C94BA24F7013581332309F4CE
:102D10004AC0003E110561F40E94BA0681E080932A
:102D20007D0410927C04109203051092FF0419CFC9
:102D3000023E110571F40E94BA0680917D04882339
:102D400019F081E080937C0410927D0410920305B9
:102D500008CF033E110591F480917C04882319F17A
:102D60000E94BA0610927D0481E0809303051092C0
:102D700000051092020510920105F3CE80919F028A
:102D80009091A0020A970235110541F00135110515
:102D900051F480919F029091A0020A969093A00214
:102DA00080939F02DECE80911C02811129C0D70141
:102DB00011964C91119784E090E0841B9109DC906E
:102DC000B0E1DB0EECE08E9FD00C1124332309F42C
:102DD0005AC0222311F08D2DD2D880917D048823F2
:102DE00051F08091FF04E82FF0E0E151FB4FD082D9
:102DF0008F5F8093FF040F3F110508F07ACFB1CEAB
:102E0000813081F4D70111964C91119784E090E0C4
:102E1000841B9109D82EDD0CDD0CD80E8C918D5CB5
:102E2000D80ED4CF823071F4F701418184E090E074
:102E3000841B9109D080F3E3DF0E47E0849FD00C20
:102E40001124C4CF4CE0D42E833009F0BFCF83E2ED
:102E5000E7E8F3E0DE01119601900D928A95E1F723
:102E6000D701EC91EC0FFD2FF11D11964C9184E0F0
:102E700090E0841B9109D084BCE08B9FD00C11247E
:102E8000E9E0DE0EA3CF222309F4B5CF8D2D0E94F9
:102E9000790A79D8B0CF26E241EE61EEC701E8DDCC
:102EA00060CE27E245EE65EEF9CF26E241EE60EE18
:102EB000F5CF27E245EE64EEF1CF26E241EE62EE79
:102EC000EDCF27E245EE66EEE9CF28E241E0EBCF19
:102ED000D70115968C91882309F4CAC31092720504
:102EE000980130572332310508F0ADC384E090E0FB
:102EF0000E9461259093180580931705F801E15011
:102F0000F047E232F10520F4E952F64D0C94BA2470
:102F10008091170581608093170536C08091180550
:102F200088608093180530C0809117058260F3CFC8
:102F3000809117058460EFCF809117058860EBCFF3
:102F4000809118058160EDCF809118058260E9CFEE
:102F5000809117058061DFCF809117058062DBCFFC
:102F6000809117058064D7CF7DD98091170580683F
:102F7000D2CF809117058C608093170564E070E0D4
:102F80008DE592E00E940A0F609117057091180577
:102F900084E090E00E94802565D9E3CD80911805FA
:102FA00083608093180564E070E08DE392E0EACFDF
:102FB000809117058E7FAFCF80911805877FB1CFA5
:102FC000809117058D7FA7CF809117058B7FA3CFA9
:102FD00080911705877F9FCF809118058E7FA1CFA5
:102FE000809118058D7F9DCF809117058F7E93CF9F
:102FF000809117058F7D8FCF809117058F7B8BCFA9
:1030000031D9809117058F7786CF80911705837FFF
:103010008093170562E070E08DE292E0B3CF80917B
:1030200018058C7F8093180562E070E08DE192E0D6
:10303000A9CF8091170582FB992790F921E092276B
:1030400090FB82F990FB83F98093170583FFE2CF11
:1030500095CF80911805982F909591708E7F892B30
:1030600090FB81F98093180581FFDECF9CCF909172
:103070001705892F8F7B96FF80644DCFF3D89091F1
:103080001705892F97FB87F9805845CF61E08EE0BF
:1030900090E00E94662578CF60E0F9CF9091170507
:1030A000892F8F7E94FF806136CF90911705892FED
:1030B0008E7F90FF81602FCF90911805892F877F99
:1030C00093FF88602ECF85E3CEC285E3DBC29801F3
:1030D000205E324520323105A8F4811115C00F71F0
:1030E00081E090E0FC0102C0EE0FFF1F0A95E2F7BD
:1030F0008F016E2F83E090E00E946625C8010E9438
:10310000130A2FCD882329F10B353CE71307A1F0D3
:103110000C354CE7140731F00A359CE7190771F4B8
:1031200081E007C08091180582FB882780F991E033
:1031300089270E94361015CD80E0FBCF0130FCE7D7
:103140001F0709F467C008F057C001151C4709F4B0
:1031500062C0D7010D911C91882309F476C0C80183
:103160000E943509D82E682FC8010E94A409B80111
:103170008D2D0E94C7070E94E6078C01882ED7017B
:103180001596AC90159716969C9092943FE09322DA
:1031900080919F04877009F1CA2CAA20F9F0812F31
:1031A000807F803469F080E2800F8830B0F0812F1A
:1031B000807E803229F4B1E0B01778F4992069F06C
:1031C0008091180582FF09C082E00E94EF0980917A
:1031D0009F048770CC24C3948111C12CB12EB2946A
:1031E0002FE0B222EBE0EB1508F491C0EB2DF0E0FC
:1031F000E750F64D0C94BA2402304CE7140779F0EE
:1032000003301C4709F0A5CF6FEF7FEF90E080E01F
:103210000E94802529DB81E007DB0E94720D9091DE
:103220001605892F8E7F90FF81608093160580FFA1
:1032300009C086E092E09F938F930E9447040F900D
:103240000F908FCC84EF91E0F6CFC8010E947109F6
:10325000D82E8DCFF12FFF70DF2E107F19F0D29472
:1032600090EFD922AA20B9F0DD2069F080E2800F2A
:10327000883010F0811009C08091CA04D82AD092F9
:10328000CA040E945F10802F41C08091A104D82AF7
:10329000D092A104F6CF802F03DBDD20C1F1005EC8
:1032A000083010F0811004C08D2D0E94FD0806C06A
:1032B000D0948091A104D822D092A1040E945F10E2
:1032C00026C0212F2F70D22E107F103219F0D294E9
:1032D00080EFD822882051F031E0831609F455C0E0
:1032E000AA2009F460C0992041F1CDCF8091180542
:1032F00082FD1FC0AA20C1F0DD2039F08091CA04F0
:10330000D82AD092CA040E945F1080E010DBAB2D57
:10331000A850BB0B149708F07EC10E94260660E0FF
:10332000C7010E94520A2CCC80E0BADADD2079F382
:10333000BBCFAA2091F0911003C08D2DA8DAE7CF62
:1033400041E09412E4CF8091A0049D2D9823D916DA
:10335000F1F2D82AD092A004DACF9110D8CF8D2DD7
:1033600090DA9091A0048D2D892329F08D2D8095E0
:1033700089238093A00480917F049D2D982339F2A6
:10338000D094D822D0927F04C2CFAA2029F085E021
:10339000891508F4BCCFD1CF94E0991508F4B7CFC4
:1033A0008D2D6FDAB4CF9920D9F3A9E38A1209C021
:1033B000BFEFE7EEF3E0B150E040F040E1F700C0CE
:1033C0000000802F6DDAA3CF812F869586958370BC
:1033D00061F0813009F09BCFC8019370A11002C049
:1033E00080E090E00E94D80592CFC8019370A110B0
:1033F00002C080E090E00E94FF0589CF812F83709A
:1034000009F03FC0A11083CF402F429546954770E9
:10341000440F440F802F8F7090E0042E02C0880F5D
:10342000991F0A94E2F730E020E004FF09C02FE082
:1034300030E002C0220F331F4A95E2F72095309505
:10344000169516951370123099F078F44091D804BF
:103450005091D904113039F0822B932B842395237A
:103460000E94130A54CF842B952B822B932BF8CFD9
:10347000822B932B2091D8043091D9048227932753
:10348000EFCF8695AA2011F0812F8170882309F44F
:103490003ECF402F429546954770440F440F802FF2
:1034A0008F7090E0042E02C0880F991F0A94E2F7F3
:1034B00030E020E004FF09C02FE030E002C0220F1E
:1034C000331F4A95E2F7209530951695169513709F
:1034D000123099F078F44091DA045091DB04113005
:1034E00039F0822B932B842395230E94DA090FCF86
:1034F000842B952B822B932BF8CF822B932B20910F
:10350000DA043091DB0482279327EFCF1F70AA20C3
:1035100029F0812F0E94050A802F10CF802FB1D96A
:10352000812F0E94DF09F3CE802F22EF8216A1F1B6
:10353000281570F030EF8316D1F041EF841691F02A
:10354000AA2009F458C091109ECE812F8F7128C0F7
:1035500093EF891641F1A4EF8A12F2CF90911805EA
:1035600092FD30C0812F8F71AA20D9F219C0AA20F4
:1035700071F0B4E0B91508F4CACE1F7181E090E093
:10358000012E02C0880F991F0A94E2F7B8CFE5E038
:10359000E91508F4BCCEF1CF812F8F71A110C1CFF6
:1035A0000E94050AB4CE90E080E0AA2009F49DCFE5
:1035B0001F7181E090E0012E02C0880F991F0A94CC
:1035C000E2F793CFAA2061F0812F8F7192FFE8CFAD
:1035D000F8E08F9F90011124236020939F04E0CF97
:1035E00081E00E94EF0921E0291508F090CE82E0E9
:1035F0000E94EF098CCE992059F0893309F0E1CE71
:103600003FEF47EE83E0315040408040E1F7D7CEB6
:10361000812F8F7186CFCC2009F481CE80919F04B9
:1036200080FD7DCEF70115828695869586950E9450
:10363000050AC7017BDA80919F0486958695869559
:103640000E94DF096CCE0631FCE71F0709F03FCD71
:103650008091CA048A7A91E009F490E090937E0404
:10366000811131CD89E20E94D20D0E945F1079CA8A
:1036700006312CE7120709F02ACD80917E048111D2
:1036800024CD89E20E94960DF0CFCF93DF938091F5
:103690009E04807F09F04CC080919D04882309F42A
:1036A00047C0E0916F0550913605C0919904D091C3
:1036B000980460919A0470919B0447E05E17C1F1F1
:1036C0008E2F90E0E49FF0011124E95CFA4F2481F1
:1036D000222389F1489FF001499FF00D1124DF0159
:1036E000A95CBA4F11962C9111972C1324C02C91E0
:1036F0002D1321C015962C91159721111CC01296DF
:103700002D913C91261B370B283C3105A0F480916C
:103710009E048F70806180939E04E35CFA4F8081E9
:103720008F708061808388E994E000DA0E942B0921
:10373000DF91CF910895FC013196E770BFCFA4E1EE
:10374000B0E0E5EAFBE10C94C6248C0186E0F801C8
:10375000DE011F9601900D928A95E1F7F8018481B0
:10376000E58098E9A92E94E0B92E90919C049111DE
:1037700026C0882309F1EE20E9F0C8010E94180A4A
:10378000F82E8823B9F087E0F801D50101900D9259
:103790008A95E1F780919C04813031F480919804FE
:1037A000909199040E94670970DF8F2D6496ECE078
:1037B0000C94E224C801BAD9FF24F394F6CFD08048
:1037C000C18082809380F0909D0420919A04309172
:1037D0009B04A401421B530BFF2009F4D3C0483CB7
:1037E000510508F08EC0882301F3909199048091CF
:1037F0009E04282F207F09F054C0C91213C0909155
:103800009804D9120FC0E11046C08F708061809378
:103810009E0488E994E08AD980919E04F801868309
:10382000F12CC3CFE11037C06C2D8D2D0E945004B8
:103830006C2D8D2D0E945004E82E8111F1CFDF8672
:10384000C88A8F8598890E946709292F22952F7031
:10385000243058F49F70223080F0992391F0F801C1
:103860009681907F71F4FE2CA0CF2A5F2F702230BA
:1038700060F0C8015BD9EF2CF6CF992311F08823B3
:1038800091F3805E883078F3F4CF803F60F3815FFE
:10389000833078F7E8CF80919E04816080939E0406
:1038A000BFCFC91207C090919804D91203C0EE206F
:1038B00009F489C0C8010E94180A882309F47ACF44
:1038C000EE2009F477CF80919E04803280F0209121
:1038D000980430919904398728879B868A8690912D
:1038E0009C049C871D868E87CE0108961FD987E091
:1038F000F801A8E9B4E001900D928A95E1F7C5DEE0
:103900005BCF90919E04292F207F49F488E994E0B1
:103910000DD987E0F50111928A95E9F781CF8823C7
:1039200009F443CF809199048C110FC080919804C1
:10393000D8120BC0E11009C09683C801F7D887E000
:10394000F50111928A95E9F730CFC8010E94180A53
:10395000882309F42FCFEE2009F42CCF80919E0408
:10396000803228F220919804309199043A83298377
:103970009C828B8290919C049D831E828F83CE01BA
:103980000196B4CF483C5105D0F6882309F414CFF2
:10399000FE2CEE2009F40ECF809199048C111FC0EB
:1039A00080919804D8121BC080919E0480FD0EC0A7
:1039B000982F907F59F08683903F31F0982F907F19
:1039C000905F8F70892B8683C801B0D887E0F8019B
:1039D000A8E9B4E001900D928A95E1F7E6CEC8011E
:1039E0000E94180A811183CF80919E048160809388
:1039F0009E04C8019BD8D9CEABE1B0E0E1E0FDE187
:103A0000CEC74E8B5F8B688F798F8A8F9B8F91117A
:103A10001092A1041D8A86E0FE017696DE011F96B3
:103A200001900D928A95E1F78B89882351F061E02E
:103A3000CE010F960E94520A61E0CE010F960E94BD
:103A4000520A87E0FE013F96DE01189601900D9222
:103A50008A95E1F7CE01089672DE81112AC087E0CF
:103A6000FE013896DE01119601900D928A95E1F7DC
:103A70008C858823F1F02091360530E0C90101964C
:103A80008770992740916F0548171906E1F097E074
:103A9000929FD001939FB00D1124A95CBA4FFE01F3
:103AA000319601900D929A95E1F7809336050E9428
:103AB0002B0917E080916F0590913605891311C08D
:103AC0006B96E3E088C70E9432111092360510927F
:103AD0006F0587E0E8E9F4E0DF011D928A95E9F7D8
:103AE000E8CF819FC0011124895C9A4F28DE88238A
:103AF00039F380916F0590E0019687709927809344
:103B00006F05D8CFA6E0B0E0E7E8FDE147C70E9427
:103B1000C9058C018091CB049091CC04801791074A
:103B200079F019821A820E94C905682F49815A8149
:103B3000792F80E090E060DF1093CC040093CB04F9
:103B40002696E4E047C7A8E0B0E0E8EAFDE11CC73C
:103B50008E010F5F1F4F88E0F80111928A95E9F7F7
:103B600093EEE92E93E0F92E680166246394712C9C
:103B700033EF832E33E0932EF70181917F018F3F46
:103B800009F445C0F894E82FE295EF70F0E021A128
:103B90008F70A30102C0440F551F8A95E2F7CA0136
:103BA000922F982B91A392A18095892382A3789438
:103BB00000C0E7EEF3E021E030E0B12CA12C419110
:103BC0004F3F09F44BC0A42FA295AF70B0E0909680
:103BD0008C9190E04F7002C0959587954A95E2F7D9
:103BE00080FD3CC0C901A82AB92A220F331F8E16B6
:103BF0009F0629F7F701319780818F3F11F00E94CE
:103C0000BF0650EA5A95F1F7F601B182A082F2E0C0
:103C1000CF0ED11C47EEE41643E0F40609F0ACCF1A
:103C200048E050E0B80180ED94E036D7892BD9F018
:103C300088E0F801A0EDB4E001900D928A95E1F7DB
:103C400081E08093CF040E94C9059093CE048093B5
:103C5000CD0410E0812F2896EEE0B2C690E080E01F
:103C6000C2CF10E020C01091CF04112391F3E09057
:103C7000CD04F090CE040E94C9058E199F090597C6
:103C800040F348E050E060ED74E08CED94E004D740
:103C9000892B39F388E0E0EDF4E0ACEDB4E001907D
:103CA0000D928A95E1F71092CF04D4CF1F920F9214
:103CB0000FB60F9211242F933F934F935F936F93FF
:103CC0007F938F939F93AF93BF93CF93DF93EF93A4
:103CD000FF93D091E900DF708091EC00C82FC17094
:103CE00080FDC0E81092E9008091F000877F80930A
:103CF000F00078940E9452111092E9008091F00037
:103D000088608093F000CD2BCF70C093E900FF91C5
:103D1000EF91DF91CF91BF91AF919F918F917F9163
:103D20006F915F914F913F912F910F900FBE0F9028
:103D30001F9018951F920F920FB60F9211242F9378
:103D40003F934F935F936F937F938F939F93AF9323
:103D5000BF93CF93EF93FF938091E10082FF14C054
:103D60008091E20082FF10C08091E1008B7F809300
:103D7000E100209120052F5F822F62E3C8D59923AF
:103D800009F4DEC0209320058091DA0080FF2CC06A
:103D90008091D80080FF28C08091DA008E7F8093C8
:103DA000DA008091D90080FF01C180E189BD82E104
:103DB00089BD09B400FEFDCF81E080932C0587E327
:103DC00096E09F938F930E944704809121050F9066
:103DD0000F90811109C00E946F040E94100580910C
:103DE000E20084608093E2008091E10080FF22C0C5
:103DF0008091E20080FF1EC08091E2008E7F809360
:103E0000E2008091E20080618093E2008091D8001E
:103E100080628093D80019BC85E080932C058FE3E5
:103E200096E09F938F930E94470483E080938503DD
:103E30000F900F908091E10084FF38C08091E200E4
:103E400084FF34C080E189BD82E189BD89B5C82F76
:103E5000C17080FFFBCF8091D8008F7D8093D80008
:103E60008091E1008F7E8093E1008091E2008F7E5F
:103E70008093E2008091E20081608093E200809173
:103E80002D05882309F4A0C084E080932C0583E4E9
:103E900096E09F938F930E94470480912C050F908A
:103EA0000F90843009F4C2E0C09385038091E10053
:103EB00083FF34C08091E20083FF30C08091E10035
:103EC000877F8093E10082E080932C0510922D057E
:103ED0008091E1008E7F8093E1008091E2008E7FEF
:103EE0008093E2008091E20080618093E20042E0F2
:103EF00060E080E00E94DE048091F00088608093A2
:103F0000F00087E496E09F938F930E94470481E03E
:103F100080938503809384030F900F90FF91EF911E
:103F2000CF91BF91AF919F918F917F916F915F9151
:103F30004F913F912F910F900FBE0F901F901895AA
:103F40001092200580911F05882309F41DCF8091D0
:103F50002C058430C1F49091E9009F702091EC0011
:103F6000822F817020FD80E8892B93E09093E900F7
:103F70009091EB0090FF04C09091EE0097FD08C077
:103F80008F708093E90010921F05FECE1092F10011
:103F90009091E80095FDFACF9091E80090FFF0CF66
:103FA0009091E8009E779093E800EACF19BC1092B8
:103FB0002C058BE396E09F938F930E944704109209
:103FC00021050F900F9010CF8091E30087FD02C074
:103FD0008C2F5BCF83E059CF78941F921FB61F922E
:103FE00011248F939F93AF93BF9380911A05909163
:103FF0001B05A0911C05B0911D050196A11DB11DC9
:1040000080931A0590931B05A0931C05B0931D0582
:10401000BF91AF919F918F911F901FBE1F901895D8
:104020001F921FB61F9211248F939F93AF93BF933C
:1040300080911905811113C080911A0590911B057B
:10404000A0911C05B0911D054196A11DB11D809345
:104050001A0590931B05A0931C05B0931D05BF91F5
:10406000AF919F918F911F901FBE1F9018951F9227
:104070000F920FB60F9211247F928F929F92AF9260
:10408000BF92CF92DF92EF92FF920F931F932F93E5
:104090003F934F935F936F937F938F939F93AF93D0
:1040A000BF93CF93DF93EF93FF9380910A05909195
:1040B0000B05A0910C05B0910D050196A11DB11D38
:1040C00080930A0590930B05A0930C05B0930D0502
:1040D00060910A0570910B0580910C0590910D057A
:1040E00082D66B017C0120E030E040E85CE3609127
:1040F000060570910705809108059091090581D703
:104100009B01AC01C701B601D1D587FDBEC010929D
:104110000A0510920B0510920C0510920D05709077
:104120007F0580918005811103C0772009F4A3C029
:104130000E94C9056C01711023C080E09091800538
:10414000782E9923A1F070908305711005C07090AE
:104150008405711001C0782EC8E8D5E010E000E0B9
:104160008091C8058017110611F00CF007C18091ED
:104170000505882309F47FC010920505782E7BC0C1
:10418000C0917505D09176050E94C905009173050F
:10419000109174058C1B9D0B8017910770F20E9483
:1041A000C905C00FD11F7C01EC1AFD0AD09276051B
:1041B000C09275058090770590907805E40121966E
:1041C000D0937805C09377050E94C9059093870521
:1041D00080938605C0907A05D0907B05CC15DD05CF
:1041E00048F080917905882309F442C0109278053F
:1041F0001092770500917C0510917D05C09177059F
:10420000D091780580917E055E0163E0AA0CBB1C0D
:104210006A95E1F7811157C0F40153E0EE0FFF1FDB
:104220005A95E1F7E00FF11FD801AA0DBB1D2D91A2
:104230003D914D915C91608171818281938136D5F0
:10424000811141C081E080937E054FE050E060E045
:1042500070E0CB010E94590E90927805809277050C
:104260008FE090E09093740580937305872D66CF5F
:104270000E949406712C80918005811199C08091D3
:104280007F05811195C00E943506FF91EF91DF9166
:10429000CF91BF91AF919F918F917F916F915F91DE
:1042A0004F913F912F911F910F91FF90EF90DF90D1
:1042B000CF90BF90AF909F908F907F900F900FBE48
:1042C0000F901F90189510927E05F801EA0DFB1DC6
:1042D00064817581868197815AD59B01A3E5B7E0FA
:1042E00071D420EF30E040E050E04AD481E0C81AB9
:1042F000D10840EF842E912CA12CB12C2E153F0516
:10430000F0F0D0937805C0937705E216F30690F5A8
:10431000C9018E199F097C0183E0CC0FDD1F8A95AE
:10432000E1F7C00FD11F688179818A819B81A70144
:104330000E94590EF0927405E092730597CFCC1548
:10434000DD05F8F6E21AF30A2196FE0123E0EE0FEE
:10435000FF1F2A95E1F7E00FF11F648175818681C7
:10436000978115D59B01A3E5B7E02CD4A501940155
:1043700007D4C4CFEE24E394F12CCECFEE80FF809F
:10438000C70101978E3F9F4F78F4C880D9800E9463
:10439000C9058C199D098E159F0530F06A817B81B6
:1043A0008C819D810E94C30F0F5F1F4F2896D8CE2E
:1043B000772009F46ACF0E94950A0E94400665CFD3
:1043C000CDB7DEB728970FB6F894DEBF0FBECDBFCE
:1043D00085B7806885BF85B7806885BF84B7877FCC
:1043E00084BF0FB6F894A89580916000886180938F
:1043F0006000109260000FBE80E890E00FB6F89465
:1044000080936100909361000FBE81E080938503EB
:1044100088EB9CE090935304809352040E946F04B5
:104420000E9410058091E20084608093E2007894FD
:1044300080912C058823A1F01091E9001F709091C4
:10444000EC00892F817090FD80E8182B1092E90014
:104450008091E80083FD0E9452111F701093E900C3
:1044600082E084BD93E095BD9AEF97BD80936E0086
:1044700080E90E94BF0685E90E94BF0685E30E948D
:10448000BF0686E30E94BF0607EE13E0E3EFEE2EC1
:10449000E3E0FE2ED8018D918D018F3F11F00E9437
:1044A000BF06E016F106B1F788E0ECEDF4E0DF01BD
:1044B000282F1D922A95E9F7E0EDF4E0DF011D9227
:1044C0008A95E9F76E9A769A90E080E0FAD2833E78
:1044D0009E4F41F163EE7EEF90E080E011D360E00B
:1044E00082E090E0F3D281E090E09093D904809351
:1044F000D80461E083E090E0E9D260E074E184E018
:1045000090E0FED260E087E090E0E0D240E050E052
:10451000BA018FE090E0ECD240E050E0BA0183E1D4
:1045200090E0E6D282E090E0C4D28093160584E069
:1045300090E0C7D2909318058093170504DBEFEF46
:10454000F6E721E0E150F0402040E1F700C0000034
:10455000FADA8091DC0480FF07C06FEF7FEF90E014
:1045600080E0CED20E94720D83E090E0A2D290E073
:104570000E94130A0E94170E8DE792E09093130594
:104580008093120580912C058530A9F48091160541
:1045900080FF08C08AE695E09F938F930E944704AE
:1045A0000F900F9080912C05853009F468C00E940F
:1045B00032110E942606C7DA74EEC72E74E0D72E99
:1045C000ECEDF4E0F887EF83DF01F6012191319102
:1045D0008D919D9144E0EC3EF40709F488C02817C2
:1045E0003907A1F38091160581FDB5C0912CAF81EB
:1045F000B8850D911D91B887AF83F601A190B19058
:104600006F01A016B10659F1812CEE24E394F12C30
:10461000A026B126C5018E219F21892BB1F0898268
:104620009A820E94C9059C838B83F1E0FD8391E00F
:10463000970120233123232B09F490E09E834981A5
:104640005A816B817C818D81D7D98394EE0CFF1CBC
:104650002CE08212DFCFF60132971183008393940E
:1046600044E09412C4CF8FB7F89440911A0550914A
:104670001B0560911C0570911D058FBF3DC0809189
:104680002C05843031F10E94940610921905E8E15E
:10469000F0E020E40FB6F894A895E09360000FBE18
:1046A0002093600083B7817F846083BF83B781607C
:1046B00083BF7894889583B78E7F83BF0FB6F894B5
:1046C000A8958091600088618093600010926000DE
:1046D0000FBE39DAECEDF4E081919191892B09F06C
:1046E000F9C084EE94E08E179F07B1F75BCF2817CF
:1046F000390709F077CF06DA8091EE0481110EC0F8
:104700000091EC041091ED040115110509F06DC044
:104710000E94C9059093ED048093EC0480910305F9
:10472000882309F48AC00091010510910205011542
:10473000110509F076C00E94C90590930205809387
:10474000010580910005282F30E0882309F49CC0E2
:10475000C90101979DC080E995E09F938F930E94C6
:1047600047040F900F902CEDE22E24E0F22E10E083
:1047700000E03BE8832E35E0932E48E8A42E45E088
:10478000B42E52E8652E55E0752E60E8462E65E0A1
:10479000562E1F930F939F928F920E944704BF92B1
:1047A000AF920E944704D7018C9111962C90B2E0F1
:1047B000EB0EF11C0E943A0A382E822D0E943A0A12
:1047C0003F928F937F926F920E9447045F924F9225
:1047D0000E9447040F5F1F4F0FB6F894DEBF0FBE55
:1047E000CDBF04301105A9F601CF0E94C905801B79
:1047F000910B8D32914008F491CF8091820580FF1A
:1048000006C063E070E087E892E00E940A0F0E9411
:10481000C9059093760580937505B1E0B093EE04D9
:104820007DCF0E94C905801B910B20919F02309182
:10483000A0022817390708F47ECF0E94260690911F
:104840000405891709F49ECE809304059FB7F89458
:1048500040911A0550911B0560911C0570911D0532
:104860009FBF909116059570953009F08BCE1F92E1
:104870008F9387EA95E09F938F930E9447040F9050
:104880000F900F900F907ECE8091FF048150990B76
:1048900040910E05442399F021513B4FF9011081BD
:1048A00081519B4FDC018C910E94790A0E94C30FB9
:1048B00080910E05882319F0812F0E94BF0F8091EF
:1048C000000590E001966091FF0470E040D0809375
:1048D0000005B3CF80912B05882309F463CE90E1C6
:1048E00099BDA2E1A9BD09B400FEFDCF8091D80019
:1048F0008F7D8093D8008091E00082608093E000FB
:104900008091E00081FDFCCF0E9432114BCE991BBB
:1049100079E004C0991F961708F0961B881F7A95B6
:10492000C9F780950895AA1BBB1B51E107C0AA1FB8
:10493000BB1FA617B70710F0A61BB70B881F991F40
:104940005A95A9F780959095BC01CD01089597FBE4
:10495000072E16F4009406D077FD08D0E4DF07FC9C
:1049600005D03EF4909581959F4F0895709561957F
:104970007F4F0895EE0FFF1F0590F491E02D0994ED
:104980002F923F924F925F926F927F928F929F925F
:10499000AF92BF92CF92DF92EF92FF920F931F934D
:1049A000CF93DF93CDB7DEB7CA1BDB0B0FB6F894FE
:1049B000DEBF0FBECDBF09942A88398848885F843E
:1049C0006E847D848C849B84AA84B984C884DF80AF
:1049D000EE80FD800C811B81AA81B981CE0FD11D93
:1049E0000FB6F894DEBF0FBECDBFED0108958F92D4
:1049F0009F92AF92BF92CF92DF92EF92FF92CF93AE
:104A0000DF93EC01688179818A819B816115710551
:104A10008105910521F464E279ED8BE597E02DE1C4
:104A200033EF41E050E080D049015A019B01AC01D5
:104A3000A7EAB1E495D06B017C01ACEEB4EFA5011F
:104A400094019AD0DC01CB018C0D9D1DAE1DBF1DC4
:104A5000B7FF03C00197A109B04888839983AA834F
:104A6000BB839F77DF91CF91FF90EF90DF90CF9046
:104A7000BF90AF909F908F900895B9CF80E091E064
:104A8000B6CFB0E0A0E08093000190930101A09325
:104A90000201B09303010895FB01DC0104C08D9174
:104AA0000190801921F441505040C8F7881B990BA0
:104AB0000895F999FECF92BD81BDF89A992780B5E6
:104AC0000895A8E1B0E042E050E020C0262FF99917
:104AD000FECF92BD81BDF89A019700B4021639F05D
:104AE0001FBA20BD0FB6F894FA9AF99A0FBE08952E
:104AF0000396272FECDFEADF252FE9DF242FE7CF0E
:104B00000196272FE4DFE2CFDC01CB01FC01F9990C
:104B1000FECF06C0F2BDE1BDF89A319600B40D9209
:104B200041505040B8F70895052E97FB16F40094B5
:104B30000FD057FD05D024D007FC02D046F408C0A2
:104B400050954095309521953F4F4F4F5F4F0895B9
:104B500090958095709561957F4F8F4F9F4F0895E9
:104B600031D0A59F900DB49F900DA49F800D911DF5
:104B700011240895B7FFF4CFF3DF821B930B089540
:104B8000A1E21A2EAA1BBB1BFD010DC0AA1FBB1F51
:104B9000EE1FFF1FA217B307E407F50720F0A21BC3
:104BA000B30BE40BF50B661F771F881F991F1A9430
:104BB00069F760957095809590959B01AC01BD015A
:104BC000CF010895A29FB001B39FC001A39F700DB4
:104BD000811D1124911DB29F700D811D1124911D05
:104BE00008955058BB27AA270ED0D1C1C2D130F0AA
:104BF000C7D120F031F49F3F11F41EF4B7C10EF479
:104C0000E095E7FB9FC1E92FD3D180F3BA17620784
:104C100073078407950718F071F49EF5EBC10EF445
:104C2000E0950B2EBA2FA02D0B01B90190010C01BC
:104C3000CA01A0011124FF27591B99F0593F50F4D4
:104C4000503E68F11A16F040A22F232F342F44272C
:104C5000585FF3CF469537952795A795F040539524
:104C6000C9F77EF41F16BA0B620B730B840BBAF0F4
:104C70009150A1F0FF0FBB1F661F771F881FC2F75F
:104C80000EC0BA0F621F731F841F48F48795779573
:104C90006795B795F7959E3F08F0B3CF9395880F2A
:104CA00008F09927EE0F97958795089527D108F476
:104CB00081E008950CD06BC163D140F05AD130F03F
:104CC00021F45F3F19F03EC1511195C14FC170D120
:104CD00098F39923C9F35523B1F3951B550BBB27C3
:104CE000AA2762177307840738F09F5F5F4F220F70
:104CF000331F441FAA1FA9F333D00E2E3AF0E0E869
:104D000030D091505040E695001CCAF729D0FE2FB4
:104D100027D0660F771F881FBB1F26173707480746
:104D2000AB07B0E809F0BB0B802DBF01FF279358FC
:104D30005F4F2AF09E3F510568F004C15CC15F3FA0
:104D4000ECF3983EDCF3869577956795B795F795E4
:104D50009F5FC9F7880F911D9695879597F90895DC
:104D6000E1E0660F771F881FBB1F62177307840778
:104D7000BA0720F0621B730B840BBA0BEE1F88F787
:104D8000E095089504D06894B11135C1089518D103
:104D900088F09F5790F0B92F9927B751A0F0D1F024
:104DA000660F771F881F991F1AF0BA95C9F712C0AE
:104DB000B13081F01FD1B1E008951CC1672F782F69
:104DC0008827B85F39F0B93FCCF38695779567951A
:104DD000B395D9F73EF490958095709561957F4F86
:104DE0008F4F9F4F0895E89409C097FB3EF490952C
:104DF0008095709561957F4F8F4F9F4F9923A9F0B4
:104E0000F92F96E9BB279395F69587957795679542
:104E1000B795F111F8CFFAF4BB0F11F460FF1BC086
:104E20006F5F7F4F8F4F9F4F16C0882311F096E919
:104E300011C0772321F09EE8872F762F05C06623C7
:104E400071F096E8862F70E060E02AF09A95660F80
:104E5000771F881FDAF7880F9695879597F9089539
:104E600088D018F011F08CD038F480C0C4C0E92F7D
:104E70009FD0B0F35523C9F3E7FB6217730784078C
:104E80009507A8F199F3E92FFF2788232AF0319796
:104E9000660F771F881FDAF7952F5527442332F0C6
:104EA00091505040220F331F441FD2F7BB27E91BFC
:104EB000F50B621B730B840BB109C1F222F4620F74
:104EC000731F841FB11D31972AF0660F771F881F4B
:104ED000BB1FEFCF915050405AF041F0882332F081
:104EE000660F771F881F91505040C1F7939530C0CF
:104EF0008695779567959F5FD9F7F8CF990F00084A
:104F0000550FAA0BE0E8FEEF16161706E807F9079B
:104F1000C0F012161306E407F50798F0621B730B36
:104F2000840B950B39F40A2661F0232B242B252BB7
:104F300021F408950A2609F4A140A6958FEF811D5A
:104F4000811D089597F99F6780E870E060E00895FB
:104F50009F3F31F0915020F4879577956795B795ED
:104F6000880F911D9695879597F908959FEF80EC8E
:104F7000089500240A9416161706180609060895BF
:104F800000240A9412161306140605060895092E25
:104F90000394000C11F4882352F0BB0F40F4BF2B94
:104FA00011F460FF04C06F5F7F4F8F4F9F4F0895D4
:104FB00057FD9058440F551F59F05F3F71F04795CA
:104FC000880F97FB991F61F09F3F79F087950895AF
:104FD000121613061406551FF2CF4695F1DF08C0CE
:104FE000161617061806991FF1CF869571056105EB
:104FF00008940895E894BB2766277727CB0197F993
:1050000008950BD0C4CFB5DF28F0BADF18F0952390
:1050100009F098CFABCF1124EECFCADFA0F3959F54
:10502000D1F3950F50E0551F629FF001729FBB278F
:10503000F00DB11D639FAA27F00DB11DAA1F649F3B
:105040006627B00DA11D661F829F2227B00DA11DEE
:10505000621F739FB00DA11D621F839FA00D611D74
:10506000221F749F3327A00D611D231F849F600D95
:10507000211D822F762F6A2F11249F5750408AF0CE
:10508000E1F088234AF0EE0FFF1FBB1F661F771F5A
:10509000881F91505040A9F79E3F510570F052CFA4
:1050A000AACF5F3FECF3983EDCF386957795679542
:1050B000B795F795E7959F5FC1F7FE2B880F911D78
:1050C0009695879597F90895FA01EE0FFF1F309690
:1050D0002105310599F16115710561F48038BFE34F
:1050E0009B0749F168949038810561F08038BFEFE3
:1050F0009B0741F0992342F5FF3FE105310521056A
:1051000011F1E8940894E795D901AA2329F4AB2F6B
:10511000BE2FF85FD0F310C0FF5F70F4A695E0F7E4
:10512000F73950F019F0FF3A38F49F779F930CD07D
:105130000F9007FC905808953EF018CF60E070E0A3
:1051400080E89FE308954FE79F775F934F933F93E6
:105150002F939ED02F913F914F915F9152DF05C0C9
:1051600019F40EF0EFCE46CF01CF2ADFC8F3963800
:10517000C0F707F80F92E8942BE33AEA48EB5FE7B1
:105180004EDF0F920F920F924DB75EB70F92C0D0C5
:10519000ECEAF0E016D04F915F91EF91FF91E59529
:1051A000EE1FFF1F49F0FE57E0684427EE0F441F33
:1051B000FA95E1F74195550B32D00F9007FE26C0C6
:1051C0000895DF93CF931F930F93FF92EF92DF9297
:1051D0007B018C01689405C0DA2EEF011EDFFE0111
:1051E000E894A5912591359145915591AEF3EF0144
:1051F0000ADDFE019701A801DA9479F7DF90EF90BC
:10520000FF900F911F91CF91DF9108959B01AC0109
:1052100060E070E080E89FE34DCD94CE99CED0DE83
:10522000E8F39923D9F3940F511DBBF391505040EB
:1052300094F059F0882332F0660F771F881F915041
:105240005040C1F79E3F510544F7880F911D969538
:10525000879597F908955F3FACF0983E9CF0BB2787
:10526000869577956795B79508F4B1609395C1F7E2
:10527000BB0F58F711F460FFE8CF6F5F7F4F8F4F80
:105280009F4FE3CFB8CE0EF063CE70CE68945ACE67
:1052900097DEC8F39923D1F3C6F3DF93CF931F931F
:1052A0000F93FF92C92FDD2788232AF02197660FDD
:1052B000771F881FDAF720E030E040E85FEB9FE3DC
:1052C000883920F0803E30F021968F778BDCE4ED3A
:1052D000F0E003C087DCE1E0F1E073DF8B01BE01A9
:1052E000EC01FB2E6F5771097595771F880B990B91
:1052F0007CDD28E132E741E35FE38FDEAF2D9801EB
:10530000AE01FF900F911F91CF91DF917CDC3FCEDA
:10531000FA01DC01AA0FBB1F9B01AC01BF5728F4A7
:1053200022273327442750781FC0B75188F4AB2F6A
:105330000024469537952795011CA395D2F30020AC
:1053400069F0220F331F441FB395DAF30DD049CC17
:1053500061307105A0E88A07B94630F49B01AC01C1
:105360006627772788279078309621F0208331832D
:10537000428353830895F894FFCFCA0A060B0C0B9F
:105380001E0BE30BCC0A200C4B0C7A0C34125C1273
:1053900002145C1202148F12B0120214AE13BB136B
:1053A000551759174B1751175D1761176517D81700
:1053B0005518E01794179817E4179C17E817F41777
:1053C000A8174E18AC17F817B017FC173718B417F2
:1053D00000183E18B91705181918A017EC17A417CC
:1053E000F017CE170F18291846184C188E17DC170F
:1053F0005C182A192A1961196119E4198719871982
:0A5400008719FE19861A941A941AEF
:10540A000100000052D02445000000410000DC44A5
:10541A000000004152D0A4440000404100005C4416
:10542A00000080415C978A440000804152D0A44425
:10543A00000080410000DC44000080410000DC44A0
:10544A00000000410AA7CF44000000415CFFB844B5
:10545A000000004152D0A444000000411FD59244EC
:10546A00000000415C978A440000004148F17644FC
:10547A000000004100005C440000004100005C4460
:10548A00000080411F1569440000804148F17644BC
:10549A000000804100D08244000080415C978A4429
:1054AA0000008041A4D024440000804100005C44F4
:1054BA00000080411FD59244000080415CFFC34434
:1054CA000000804100000000000000005CFF43442F
:1054DA00000080411FD59244000080410000DC4456
:1054EA000000804152D024450000804100000000A5
:1054FA000000000000005C440000804148F176444E
:10550A00000080415C978A44000080411FD5924484
:10551A000000804152D0A444000080410300005C96
:10552A00440000004100005C440000004100005CAF
:10553A00440000004100005C440000004148F1764C
:10554A00440000C04000005C440000C04048F176BE
:10555A00440000C04000005C440000C04048F176AE
:10556A00440000C04000005C440000C04048F1769E
:10557A00440000C04000005C440000C040D5055F04
:10558A000D5A0DC805550D52D0A444000000410023
:10559A0000DC440000004152D02445000040416430
:1055AA000000005C44000000410000DC44000000F0
:1055BA00410000DC440000004100005C440000009F
:1055CA00410100005C440000004148F176440000BB
:1055DA0000415C978A44000000411FD592440000B4
:1055EA00004152D0A444000000415CFFB8440000CE
:1055FA0000410AA7CF44000000410000DC4400003B
:10560A0000410000DC44000000410AA7CF4400002A
:10561A0000415CFFB8440000004152D0A44400009D
:10562A0000411FD59244000000415C978A44000063
:10563A00004148F176440000004100005C4400004B
:10564A00004100005C440000004148F1764400003B
:10565A0000415C978A44000000411FD59244000033
:10566A00004152D0A444000000415CFFB84400004D
:10567A0000410AA7CF44000000410000DC440000BA
:10568A00004100000100320002040507090B0C0E5C
:10569A001011131517181A1C1D1F21232426282937
:1056AA002B2D2F3032343537393B818283E200E9A2
:1056BA0000EA00B500B600B700CD008301CC008A2D
:1056CA0001920194012102230224022502260227C3
:1056DA00022A02B300B4006F0070009F01CB019F41
:1056EA0002A00290953536F1F03067F4F5F6F7949A
:1056FA00963497446D15B00143012E015D06760676
:10570A008F063149803F5D8B803FF8BF803FCAE1F9
:10571A00803F73ED803FCAE1803FF8BF803F5D8BD9
:10572A00803F3149803F0000803FF16D7F3F75EA3D
:10573A007E3F4C827E3F833F7E3F84287E3F833F6D
:10574A007E3F4C827E3F75EA7E3FF16D7F3F0000CF
:02575A00803F8E
:00000001FF
